:020000040000FA
:10000000312898181812181664008C1E04281A0833
:1000100003142C28A301A200FF30A207031CA3078E
:10002000031C2C280330A100DF3018200C28A1016C
:10003000E83EA000A109FC30031C2128A0070318FA
:100040001E28A0076400A10F1E2820182728A01C26
:100050002B2800002B28080083130313831264004D
:1000600008008316193099002430980083129030CC
:100070009800831607309F00643083128A010A209B
:1000800083168601831286018316880183128801F4
:100090008316C030870083123330B8006630B90051
:1000A000CC30BA009930BB009330BC00C630BD00E4
:1000B0006C30BE003930BF008A010120C4006400EA
:1000C0004408773C8A110A12031D6C288A110A120F
:1000D000D5208A110A12902864004408733C8A11C2
:1000E0000A12031D79288A110A12BF208A110A12E6
:1000F000902864004408613C8A110A12031D862876
:100100008A110A12A8208A110A1290286400440851
:10011000643C8A110A12031D90288A110A12922047
:100120008A015C286400043042028A110A12031812
:10013000A5284208383E840000088600C20A0A301A
:100140008A010A208A110A12A628C2018A015C20AB
:100150006400013042028A110A12031CBB28C20348
:100160004208383E8400000886000A308A010A20CE
:100170008A110A12BD280430C2008A015C20640082
:10018000043045028A110A120318D22845083C3E61
:10019000840000088600C50A0A308A010A208A11F4
:1001A0000A12D328C5018A015C206400013045028F
:1001B0008A110A12031CE828C50345083C3E840046
:1001C000000886000A308A010A208A110A12EA28E9
:0801D0000430C5008A015C2027
:02400E00753FFC
:00000001FF
